{
  "_format": "hh-sol-artifact-1",
  "contractName": "Marketplace",
  "sourceName": "contracts/Marketplace.sol",
  "abi": [
    {
      "inputs": [],
      "stateMutability": "nonpayable",
      "type": "constructor"
    },
    {
      "anonymous": false,
      "inputs": [
        {
          "indexed": true,
          "internalType": "string",
          "name": "name",
          "type": "string"
        },
        {
          "indexed": false,
          "internalType": "uint256",
          "name": "price",
          "type": "uint256"
        }
      ],
      "name": "ItemListed",
      "type": "event"
    },
    {
      "anonymous": false,
      "inputs": [
        {
          "indexed": true,
          "internalType": "string",
          "name": "name",
          "type": "string"
        },
        {
          "indexed": false,
          "internalType": "uint256",
          "name": "price",
          "type": "uint256"
        },
        {
          "indexed": false,
          "internalType": "address",
          "name": "buyer",
          "type": "address"
        }
      ],
      "name": "ItemSold",
      "type": "event"
    },
    {
      "inputs": [
        {
          "internalType": "uint256",
          "name": "_index",
          "type": "uint256"
        }
      ],
      "name": "buyItem",
      "outputs": [],
      "stateMutability": "payable",
      "type": "function"
    },
    {
      "inputs": [],
      "name": "buyer",
      "outputs": [
        {
          "internalType": "address",
          "name": "",
          "type": "address"
        }
      ],
      "stateMutability": "view",
      "type": "function"
    },
    {
      "inputs": [
        {
          "internalType": "uint256",
          "name": "",
          "type": "uint256"
        }
      ],
      "name": "isSold",
      "outputs": [
        {
          "internalType": "bool",
          "name": "",
          "type": "bool"
        }
      ],
      "stateMutability": "view",
      "type": "function"
    },
    {
      "inputs": [
        {
          "internalType": "uint256",
          "name": "",
          "type": "uint256"
        }
      ],
      "name": "items",
      "outputs": [
        {
          "internalType": "string",
          "name": "name",
          "type": "string"
        },
        {
          "internalType": "uint256",
          "name": "price",
          "type": "uint256"
        },
        {
          "internalType": "enum Marketplace.Status",
          "name": "status",
          "type": "uint8"
        }
      ],
      "stateMutability": "view",
      "type": "function"
    },
    {
      "inputs": [
        {
          "internalType": "string",
          "name": "_name",
          "type": "string"
        },
        {
          "internalType": "uint256",
          "name": "_price",
          "type": "uint256"
        }
      ],
      "name": "listItem",
      "outputs": [],
      "stateMutability": "nonpayable",
      "type": "function"
    },
    {
      "inputs": [],
      "name": "owner",
      "outputs": [
        {
          "internalType": "address",
          "name": "",
          "type": "address"
        }
      ],
      "stateMutability": "view",
      "type": "function"
    }
  ],
  "bytecode": "0x6080604052348015600f57600080fd5b50336000806101000a81548173ffffffffffffffffffffffffffffffffffffffff021916908373ffffffffffffffffffffffffffffffffffffffff16021790555061135a8061005f6000396000f3fe6080604052600436106100555760003560e01c80630110a1761461005a5780637150d8ae146100975780638511c937146100c25780638da5cb5b146100eb578063bfb231d214610116578063e7fb74c714610155575b600080fd5b34801561006657600080fd5b50610081600480360381019061007c91906107e2565b610171565b60405161008e919061082a565b60405180910390f35b3480156100a357600080fd5b506100ac610191565b6040516100b99190610886565b60405180910390f35b3480156100ce57600080fd5b506100e960048036038101906100e491906109e7565b6101b7565b005b3480156100f757600080fd5b506101006103f9565b60405161010d9190610886565b60405180910390f35b34801561012257600080fd5b5061013d600480360381019061013891906107e2565b61041d565b60405161014c93929190610b48565b60405180910390f35b61016f600480360381019061016a91906107e2565b6104ec565b005b60036020528060005260406000206000915054906101000a900460ff1681565b600160009054906101000a900473ffffffffffffffffffffffffffffffffffffffff1681565b60008054906101000a900473ffffffffffffffffffffffffffffffffffffffff1673ffffffffffffffffffffffffffffffffffffffff163373ffffffffffffffffffffffffffffffffffffffff1614610245576040517f08c379a000000000000000000000000000000000000000000000000000000000815260040161023c90610bf8565b60405180910390fd5b600073ffffffffffffffffffffffffffffffffffffffff163373ffffffffffffffffffffffffffffffffffffffff16036102b4576040517f08c379a00000000000000000000000000000000000000000000000000000000081526004016102ab90610c64565b60405180910390fd5b600081116102f7576040517f08c379a00000000000000000000000000000000000000000000000000000000081526004016102ee90610cd0565b60405180910390fd5b600060405180606001604052808481526020018381526020016000600281111561032457610323610ad1565b5b81525090506002819080600181540180825580915050600190039060005260206000209060030201600090919091909150600082015181600001908161036a9190610efc565b506020820151816001015560408201518160020160006101000a81548160ff021916908360028111156103a05761039f610ad1565b5b02179055505050826040516103b5919061100a565b60405180910390207f825475a5e7cc2fe7736c00cee45d8aad11052a0831f2994c2a1a4a950b2d6294836040516103ec9190611021565b60405180910390a2505050565b60008054906101000a900473ffffffffffffffffffffffffffffffffffffffff1681565b6002818154811061042d57600080fd5b906000526020600020906003020160009150905080600001805461045090610d1f565b80601f016020809104026020016040519081016040528092919081815260200182805461047c90610d1f565b80156104c95780601f1061049e576101008083540402835291602001916104c9565b820191906000526020600020905b8154815290600101906020018083116104ac57829003601f168201915b5050505050908060010154908060020160009054906101000a900460ff16905083565b6002805490508110610533576040517f08c379a000000000000000000000000000000000000000000000000000000000815260040161052a90611088565b60405180910390fd5b600060028281548110610549576105486110a8565b5b906000526020600020906003020190506000600281111561056d5761056c610ad1565b5b8160020160009054906101000a900460ff16600281111561059157610590610ad1565b5b146105d1576040517f08c379a00000000000000000000000000000000000000000000000000000000081526004016105c890611123565b60405180910390fd5b80600101543414610617576040517f08c379a000000000000000000000000000000000000000000000000000000000815260040161060e9061118f565b60405180910390fd5b60028160020160006101000a81548160ff0219169083600281111561063f5761063e610ad1565b5b021790555060016003600084815260200190815260200160002060006101000a81548160ff02191690831515021790555060008060009054906101000a900473ffffffffffffffffffffffffffffffffffffffff1673ffffffffffffffffffffffffffffffffffffffff16346040516106b7906111e0565b60006040518083038185875af1925050503d80600081146106f4576040519150601f19603f3d011682016040523d82523d6000602084013e6106f9565b606091505b505090508061073d576040517f08c379a000000000000000000000000000000000000000000000000000000000815260040161073490611241565b60405180910390fd5b8160000160405161074e91906112e4565b60405180910390207f816e01f046fbafb01161564a5a559315ee33e5f4ceed1c267a0a937db15c1e4883600101543360405161078b9291906112fb565b60405180910390a2505050565b6000604051905090565b600080fd5b600080fd5b6000819050919050565b6107bf816107ac565b81146107ca57600080fd5b50565b6000813590506107dc816107b6565b92915050565b6000602082840312156107f8576107f76107a2565b5b6000610806848285016107cd565b91505092915050565b60008115159050919050565b6108248161080f565b82525050565b600060208201905061083f600083018461081b565b92915050565b600073ffffffffffffffffffffffffffffffffffffffff82169050919050565b600061087082610845565b9050919050565b61088081610865565b82525050565b600060208201905061089b6000830184610877565b92915050565b600080fd5b600080fd5b6000601f19601f8301169050919050565b7f4e487b7100000000000000000000000000000000000000000000000000000000600052604160045260246000fd5b6108f4826108ab565b810181811067ffffffffffffffff82111715610913576109126108bc565b5b80604052505050565b6000610926610798565b905061093282826108eb565b919050565b600067ffffffffffffffff821115610952576109516108bc565b5b61095b826108ab565b9050602081019050919050565b82818337600083830152505050565b600061098a61098584610937565b61091c565b9050828152602081018484840111156109a6576109a56108a6565b5b6109b1848285610968565b509392505050565b600082601f8301126109ce576109cd6108a1565b5b81356109de848260208601610977565b91505092915050565b600080604083850312156109fe576109fd6107a2565b5b600083013567ffffffffffffffff811115610a1c57610a1b6107a7565b5b610a28858286016109b9565b9250506020610a39858286016107cd565b9150509250929050565b600081519050919050565b600082825260208201905092915050565b60005b83811015610a7d578082015181840152602081019050610a62565b60008484015250505050565b6000610a9482610a43565b610a9e8185610a4e565b9350610aae818560208601610a5f565b610ab7816108ab565b840191505092915050565b610acb816107ac565b82525050565b7f4e487b7100000000000000000000000000000000000000000000000000000000600052602160045260246000fd5b60038110610b1157610b10610ad1565b5b50565b6000819050610b2282610b00565b919050565b6000610b3282610b14565b9050919050565b610b4281610b27565b82525050565b60006060820190508181036000830152610b628186610a89565b9050610b716020830185610ac2565b610b7e6040830184610b39565b949350505050565b7f4f6e6c79206f776e65722063616e20706572666f726d2074686973206163746960008201527f6f6e000000000000000000000000000000000000000000000000000000000000602082015250565b6000610be2602283610a4e565b9150610bed82610b86565b604082019050919050565b60006020820190508181036000830152610c1181610bd5565b9050919050565b7f5a65726f2061646472657373206973206e6f7420616c6c6f7765640000000000600082015250565b6000610c4e601b83610a4e565b9150610c5982610c18565b602082019050919050565b60006020820190508181036000830152610c7d81610c41565b9050919050565b7f5072696365206d7573742062652067726561746572207468616e207a65726f00600082015250565b6000610cba601f83610a4e565b9150610cc582610c84565b602082019050919050565b60006020820190508181036000830152610ce981610cad565b9050919050565b7f4e487b7100000000000000000000000000000000000000000000000000000000600052602260045260246000fd5b60006002820490506001821680610d3757607f821691505b602082108103610d4a57610d49610cf0565b5b50919050565b60008190508160005260206000209050919050565b60006020601f8301049050919050565b600082821b905092915050565b600060088302610db27fffffffffffffffffffffffffffffffffffffffffffffffffffffffffffffffff82610d75565b610dbc8683610d75565b95508019841693508086168417925050509392505050565b6000819050919050565b6000610df9610df4610def846107ac565b610dd4565b6107ac565b9050919050565b6000819050919050565b610e1383610dde565b610e27610e1f82610e00565b848454610d82565b825550505050565b600090565b610e3c610e2f565b610e47818484610e0a565b505050565b5b81811015610e6b57610e60600082610e34565b600181019050610e4d565b5050565b601f821115610eb057610e8181610d50565b610e8a84610d65565b81016020851015610e99578190505b610ead610ea585610d65565b830182610e4c565b50505b505050565b600082821c905092915050565b6000610ed360001984600802610eb5565b1980831691505092915050565b6000610eec8383610ec2565b9150826002028217905092915050565b610f0582610a43565b67ffffffffffffffff811115610f1e57610f1d6108bc565b5b610f288254610d1f565b610f33828285610e6f565b600060209050601f831160018114610f665760008415610f54578287015190505b610f5e8582610ee0565b865550610fc6565b601f198416610f7486610d50565b60005b82811015610f9c57848901518255600182019150602085019450602081019050610f77565b86831015610fb95784890151610fb5601f891682610ec2565b8355505b6001600288020188555050505b505050505050565b600081905092915050565b6000610fe482610a43565b610fee8185610fce565b9350610ffe818560208601610a5f565b80840191505092915050565b60006110168284610fd9565b915081905092915050565b60006020820190506110366000830184610ac2565b92915050565b7f4974656d20696e646578206f7574206f6620626f756e64730000000000000000600082015250565b6000611072601883610a4e565b915061107d8261103c565b602082019050919050565b600060208201905081810360008301526110a181611065565b9050919050565b7f4e487b7100000000000000000000000000000000000000000000000000000000600052603260045260246000fd5b7f4974656d206e6f7420617661696c61626c6520666f722073616c650000000000600082015250565b600061110d601b83610a4e565b9150611118826110d7565b602082019050919050565b6000602082019050818103600083015261113c81611100565b9050919050565b7f496e636f727265637420616d6f756e742073656e740000000000000000000000600082015250565b6000611179601583610a4e565b915061118482611143565b602082019050919050565b600060208201905081810360008301526111a88161116c565b9050919050565b600081905092915050565b50565b60006111ca6000836111af565b91506111d5826111ba565b600082019050919050565b60006111eb826111bd565b9150819050919050565b7f4661696c656420746f2073656e64204574686572000000000000000000000000600082015250565b600061122b601483610a4e565b9150611236826111f5565b602082019050919050565b6000602082019050818103600083015261125a8161121e565b9050919050565b6000815461126e81610d1f565b6112788186610fce565b9450600182166000811461129357600181146112a8576112db565b60ff19831686528115158202860193506112db565b6112b185610d50565b60005b838110156112d3578154818901526001820191506020810190506112b4565b838801955050505b50505092915050565b60006112f08284611261565b915081905092915050565b60006040820190506113106000830185610ac2565b61131d6020830184610877565b939250505056fea2646970667358221220a43cfb1826b44739e40247898c767b1277d0dbb58620449d530f2898ea18ea4164736f6c634300081b0033",
  "linkReferences": {},
  "deployedLinkReferences": {}
}